{
  "_format": "hh-sol-artifact-1",
  "contractName": "VoroslandRuble",
  "sourceName": "contracts/Token.sol",
  "abi": [
    {
      "inputs": [],
      "stateMutability": "nonpayable",
      "type": "constructor"
    },
    {
      "inputs": [
        {
          "internalType": "address",
          "name": "spender",
          "type": "address"
        },
        {
          "internalType": "uint256",
          "name": "allowance",
          "type": "uint256"
        },
        {
          "internalType": "uint256",
          "name": "needed",
          "type": "uint256"
        }
      ],
      "name": "ERC20InsufficientAllowance",
      "type": "error"
    },
    {
      "inputs": [
        {
          "internalType": "address",
          "name": "sender",
          "type": "address"
        },
        {
          "internalType": "uint256",
          "name": "balance",
          "type": "uint256"
        },
        {
          "internalType": "uint256",
          "name": "needed",
          "type": "uint256"
        }
      ],
      "name": "ERC20InsufficientBalance",
      "type": "error"
    },
    {
      "inputs": [
        {
          "internalType": "address",
          "name": "approver",
          "type": "address"
        }
      ],
      "name": "ERC20InvalidApprover",
      "type": "error"
    },
    {
      "inputs": [
        {
          "internalType": "address",
          "name": "receiver",
          "type": "address"
        }
      ],
      "name": "ERC20InvalidReceiver",
      "type": "error"
    },
    {
      "inputs": [
        {
          "internalType": "address",
          "name": "sender",
          "type": "address"
        }
      ],
      "name": "ERC20InvalidSender",
      "type": "error"
    },
    {
      "inputs": [
        {
          "internalType": "address",
          "name": "spender",
          "type": "address"
        }
      ],
      "name": "ERC20InvalidSpender",
      "type": "error"
    },
    {
      "anonymous": false,
      "inputs": [
        {
          "indexed": true,
          "internalType": "address",
          "name": "owner",
          "type": "address"
        },
        {
          "indexed": true,
          "internalType": "address",
          "name": "spender",
          "type": "address"
        },
        {
          "indexed": false,
          "internalType": "uint256",
          "name": "value",
          "type": "uint256"
        }
      ],
      "name": "Approval",
      "type": "event"
    },
    {
      "anonymous": false,
      "inputs": [
        {
          "indexed": true,
          "internalType": "address",
          "name": "from",
          "type": "address"
        },
        {
          "indexed": false,
          "internalType": "uint256",
          "name": "amount",
          "type": "uint256"
        }
      ],
      "name": "TokenExchange",
      "type": "event"
    },
    {
      "anonymous": false,
      "inputs": [
        {
          "indexed": true,
          "internalType": "address",
          "name": "to",
          "type": "address"
        },
        {
          "indexed": false,
          "internalType": "uint256",
          "name": "amount",
          "type": "uint256"
        }
      ],
      "name": "TokensBought",
      "type": "event"
    },
    {
      "anonymous": false,
      "inputs": [
        {
          "indexed": true,
          "internalType": "address",
          "name": "from",
          "type": "address"
        },
        {
          "indexed": false,
          "internalType": "uint256",
          "name": "amount",
          "type": "uint256"
        }
      ],
      "name": "TokensSold",
      "type": "event"
    },
    {
      "anonymous": false,
      "inputs": [
        {
          "indexed": true,
          "internalType": "address",
          "name": "from",
          "type": "address"
        },
        {
          "indexed": true,
          "internalType": "address",
          "name": "to",
          "type": "address"
        },
        {
          "indexed": false,
          "internalType": "uint256",
          "name": "value",
          "type": "uint256"
        }
      ],
      "name": "Transfer",
      "type": "event"
    },
    {
      "inputs": [
        {
          "internalType": "address",
          "name": "owner",
          "type": "address"
        },
        {
          "internalType": "address",
          "name": "spender",
          "type": "address"
        }
      ],
      "name": "allowance",
      "outputs": [
        {
          "internalType": "uint256",
          "name": "",
          "type": "uint256"
        }
      ],
      "stateMutability": "view",
      "type": "function"
    },
    {
      "inputs": [
        {
          "internalType": "address",
          "name": "spender",
          "type": "address"
        },
        {
          "internalType": "uint256",
          "name": "value",
          "type": "uint256"
        }
      ],
      "name": "approve",
      "outputs": [
        {
          "internalType": "bool",
          "name": "",
          "type": "bool"
        }
      ],
      "stateMutability": "nonpayable",
      "type": "function"
    },
    {
      "inputs": [
        {
          "internalType": "address",
          "name": "account",
          "type": "address"
        }
      ],
      "name": "balanceOf",
      "outputs": [
        {
          "internalType": "uint256",
          "name": "",
          "type": "uint256"
        }
      ],
      "stateMutability": "view",
      "type": "function"
    },
    {
      "inputs": [
        {
          "internalType": "uint256",
          "name": "amount",
          "type": "uint256"
        }
      ],
      "name": "buy",
      "outputs": [],
      "stateMutability": "nonpayable",
      "type": "function"
    },
    {
      "inputs": [],
      "name": "decimals",
      "outputs": [
        {
          "internalType": "uint8",
          "name": "",
          "type": "uint8"
        }
      ],
      "stateMutability": "view",
      "type": "function"
    },
    {
      "inputs": [
        {
          "internalType": "uint256",
          "name": "amount",
          "type": "uint256"
        }
      ],
      "name": "exchange",
      "outputs": [],
      "stateMutability": "payable",
      "type": "function"
    },
    {
      "inputs": [],
      "name": "name",
      "outputs": [
        {
          "internalType": "string",
          "name": "",
          "type": "string"
        }
      ],
      "stateMutability": "view",
      "type": "function"
    },
    {
      "inputs": [],
      "name": "owner",
      "outputs": [
        {
          "internalType": "address payable",
          "name": "",
          "type": "address"
        }
      ],
      "stateMutability": "view",
      "type": "function"
    },
    {
      "inputs": [
        {
          "internalType": "uint256",
          "name": "amount",
          "type": "uint256"
        }
      ],
      "name": "sell",
      "outputs": [],
      "stateMutability": "nonpayable",
      "type": "function"
    },
    {
      "inputs": [],
      "name": "symbol",
      "outputs": [
        {
          "internalType": "string",
          "name": "",
          "type": "string"
        }
      ],
      "stateMutability": "view",
      "type": "function"
    },
    {
      "inputs": [],
      "name": "totalSupply",
      "outputs": [
        {
          "internalType": "uint256",
          "name": "",
          "type": "uint256"
        }
      ],
      "stateMutability": "view",
      "type": "function"
    },
    {
      "inputs": [
        {
          "internalType": "address",
          "name": "to",
          "type": "address"
        },
        {
          "internalType": "uint256",
          "name": "value",
          "type": "uint256"
        }
      ],
      "name": "transfer",
      "outputs": [
        {
          "internalType": "bool",
          "name": "",
          "type": "bool"
        }
      ],
      "stateMutability": "nonpayable",
      "type": "function"
    },
    {
      "inputs": [
        {
          "internalType": "address",
          "name": "from",
          "type": "address"
        },
        {
          "internalType": "address",
          "name": "to",
          "type": "address"
        },
        {
          "internalType": "uint256",
          "name": "value",
          "type": "uint256"
        }
      ],
      "name": "transferFrom",
      "outputs": [
        {
          "internalType": "bool",
          "name": "",
          "type": "bool"
        }
      ],
      "stateMutability": "nonpayable",
      "type": "function"
    },
    {
      "inputs": [],
      "name": "withdraw",
      "outputs": [],
      "stateMutability": "nonpayable",
      "type": "function"
    }
  ],
  "bytecode": "0x60806040523480156200001157600080fd5b506040518060400160405280600f81526020017f566f726f736c616e64205275626c6500000000000000000000000000000000008152506040518060400160405280600481526020017f565255420000000000000000000000000000000000000000000000000000000081525081600390816200008f91906200068d565b508060049081620000a191906200068d565b50505033600560006101000a81548173ffffffffffffffffffffffffffffffffffffffff021916908373ffffffffffffffffffffffffffffffffffffffff16021790555062000147600560009054906101000a900473ffffffffffffffffffffffffffffffffffffffff166200011c6200014d60201b60201c565b600a6200012a919062000904565b6335a4e9006200013b919062000955565b6200015660201b60201c565b62000aa8565b60006012905090565b600073ffffffffffffffffffffffffffffffffffffffff168273ffffffffffffffffffffffffffffffffffffffff1603620001cb5760006040517fec442f05000000000000000000000000000000000000000000000000000000008152600401620001c29190620009e5565b60405180910390fd5b620001df60008383620001e360201b60201c565b5050565b600073ffffffffffffffffffffffffffffffffffffffff168373ffffffffffffffffffffffffffffffffffffffff1603620002395780600260008282546200022c919062000a02565b925050819055506200030f565b60008060008573ffffffffffffffffffffffffffffffffffffffff1673ffffffffffffffffffffffffffffffffffffffff16815260200190815260200160002054905081811015620002c8578381836040517fe450d38c000000000000000000000000000000000000000000000000000000008152600401620002bf9392919062000a4e565b60405180910390fd5b8181036000808673ffffffffffffffffffffffffffffffffffffffff1673ffffffffffffffffffffffffffffffffffffffff16815260200190815260200160002081905550505b600073ffffffffffffffffffffffffffffffffffffffff168273ffffffffffffffffffffffffffffffffffffffff16036200035a5780600260008282540392505081905550620003a7565b806000808473ffffffffffffffffffffffffffffffffffffffff1673ffffffffffffffffffffffffffffffffffffffff168152602001908152602001600020600082825401925050819055505b8173ffffffffffffffffffffffffffffffffffffffff168373ffffffffffffffffffffffffffffffffffffffff167fddf252ad1be2c89b69c2b068fc378daa952ba7f163c4a11628f55a4df523b3ef8360405162000406919062000a8b565b60405180910390a3505050565b600081519050919050565b7f4e487b7100000000000000000000000000000000000000000000000000000000600052604160045260246000fd5b7f4e487b7100000000000000000000000000000000000000000000000000000000600052602260045260246000fd5b600060028204905060018216806200049557607f821691505b602082108103620004ab57620004aa6200044d565b5b50919050565b60008190508160005260206000209050919050565b60006020601f8301049050919050565b600082821b905092915050565b600060088302620005157fffffffffffffffffffffffffffffffffffffffffffffffffffffffffffffffff82620004d6565b620005218683620004d6565b95508019841693508086168417925050509392505050565b6000819050919050565b6000819050919050565b60006200056e62000568620005628462000539565b62000543565b62000539565b9050919050565b6000819050919050565b6200058a836200054d565b620005a2620005998262000575565b848454620004e3565b825550505050565b600090565b620005b9620005aa565b620005c68184846200057f565b505050565b5b81811015620005ee57620005e2600082620005af565b600181019050620005cc565b5050565b601f8211156200063d576200060781620004b1565b6200061284620004c6565b8101602085101562000622578190505b6200063a6200063185620004c6565b830182620005cb565b50505b505050565b600082821c905092915050565b6000620006626000198460080262000642565b1980831691505092915050565b60006200067d83836200064f565b9150826002028217905092915050565b620006988262000413565b67ffffffffffffffff811115620006b457620006b36200041e565b5b620006c082546200047c565b620006cd828285620005f2565b600060209050601f831160018114620007055760008415620006f0578287015190505b620006fc85826200066f565b8655506200076c565b601f1984166200071586620004b1565b60005b828110156200073f5784890151825560018201915060208501945060208101905062000718565b868310156200075f57848901516200075b601f8916826200064f565b8355505b6001600288020188555050505b505050505050565b7f4e487b7100000000000000000000000000000000000000000000000000000000600052601160045260246000fd5b60008160011c9050919050565b6000808291508390505b60018511156200080257808604811115620007da57620007d962000774565b5b6001851615620007ea5780820291505b8081029050620007fa85620007a3565b9450620007ba565b94509492505050565b6000826200081d5760019050620008f0565b816200082d5760009050620008f0565b8160018114620008465760028114620008515762000887565b6001915050620008f0565b60ff84111562000866576200086562000774565b5b8360020a91508482111562000880576200087f62000774565b5b50620008f0565b5060208310610133831016604e8410600b8410161715620008c15782820a905083811115620008bb57620008ba62000774565b5b620008f0565b620008d08484846001620007b0565b92509050818404811115620008ea57620008e962000774565b5b81810290505b9392505050565b600060ff82169050919050565b6000620009118262000539565b91506200091e83620008f7565b92506200094d7fffffffffffffffffffffffffffffffffffffffffffffffffffffffffffffffff84846200080b565b905092915050565b6000620009628262000539565b91506200096f8362000539565b92508282026200097f8162000539565b9150828204841483151762000999576200099862000774565b5b5092915050565b600073ffffffffffffffffffffffffffffffffffffffff82169050919050565b6000620009cd82620009a0565b9050919050565b620009df81620009c0565b82525050565b6000602082019050620009fc6000830184620009d4565b92915050565b600062000a0f8262000539565b915062000a1c8362000539565b925082820190508082111562000a375762000a3662000774565b5b92915050565b62000a488162000539565b82525050565b600060608201905062000a656000830186620009d4565b62000a74602083018562000a3d565b62000a83604083018462000a3d565b949350505050565b600060208201905062000aa2600083018462000a3d565b92915050565b6117218062000ab86000396000f3fe6080604052600436106100dd5760003560e01c806370a082311161007f578063a9059cbb11610059578063a9059cbb146102a3578063d96a094a146102e0578063dd62ed3e14610309578063e4849b3214610346576100dd565b806370a08231146102105780638da5cb5b1461024d57806395d89b4114610278576100dd565b806323b872dd116100bb57806323b872dd14610175578063313ce567146101b25780633ccfd60b146101dd57806353556559146101f4576100dd565b806306fdde03146100e2578063095ea7b31461010d57806318160ddd1461014a575b600080fd5b3480156100ee57600080fd5b506100f761036f565b6040516101049190611028565b60405180910390f35b34801561011957600080fd5b50610134600480360381019061012f91906110e3565b610401565b604051610141919061113e565b60405180910390f35b34801561015657600080fd5b5061015f610424565b60405161016c9190611168565b60405180910390f35b34801561018157600080fd5b5061019c60048036038101906101979190611183565b61042e565b6040516101a9919061113e565b60405180910390f35b3480156101be57600080fd5b506101c761045d565b6040516101d491906111f2565b60405180910390f35b3480156101e957600080fd5b506101f2610466565b005b61020e6004803603810190610209919061120d565b610561565b005b34801561021c57600080fd5b506102376004803603810190610232919061123a565b61065a565b6040516102449190611168565b60405180910390f35b34801561025957600080fd5b506102626106a2565b60405161026f9190611288565b60405180910390f35b34801561028457600080fd5b5061028d6106c8565b60405161029a9190611028565b60405180910390f35b3480156102af57600080fd5b506102ca60048036038101906102c591906110e3565b61075a565b6040516102d7919061113e565b60405180910390f35b3480156102ec57600080fd5b506103076004803603810190610302919061120d565b61077d565b005b34801561031557600080fd5b50610330600480360381019061032b91906112a3565b6107f6565b60405161033d9190611168565b60405180910390f35b34801561035257600080fd5b5061036d6004803603810190610368919061120d565b61087d565b005b60606003805461037e90611312565b80601f01602080910402602001604051908101604052809291908181526020018280546103aa90611312565b80156103f75780601f106103cc576101008083540402835291602001916103f7565b820191906000526020600020905b8154815290600101906020018083116103da57829003601f168201915b5050505050905090565b60008061040c6108f6565b90506104198185856108fe565b600191505092915050565b6000600254905090565b6000806104396108f6565b9050610446858285610910565b6104518585856109a4565b60019150509392505050565b60006012905090565b600560009054906101000a900473ffffffffffffffffffffffffffffffffffffffff1673ffffffffffffffffffffffffffffffffffffffff163373ffffffffffffffffffffffffffffffffffffffff16146104f6576040517f08c379a00000000000000000000000000000000000000000000000000000000081526004016104ed906113b5565b60405180910390fd5b600560009054906101000a900473ffffffffffffffffffffffffffffffffffffffff1673ffffffffffffffffffffffffffffffffffffffff166108fc479081150290604051600060405180830381858888f1935050505015801561055e573d6000803e3d6000fd5b50565b8034146105a3576040517f08c379a000000000000000000000000000000000000000000000000000000000815260040161059a90611447565b60405180910390fd5b6105ee600560009054906101000a900473ffffffffffffffffffffffffffffffffffffffff16336105d261045d565b600a6105de91906115c9565b846105e99190611614565b6109a4565b600560009054906101000a900473ffffffffffffffffffffffffffffffffffffffff1673ffffffffffffffffffffffffffffffffffffffff166108fc349081150290604051600060405180830381858888f19350505050158015610656573d6000803e3d6000fd5b5050565b60008060008373ffffffffffffffffffffffffffffffffffffffff1673ffffffffffffffffffffffffffffffffffffffff168152602001908152602001600020549050919050565b600560009054906101000a900473ffffffffffffffffffffffffffffffffffffffff1681565b6060600480546106d790611312565b80601f016020809104026020016040519081016040528092919081815260200182805461070390611312565b80156107505780601f1061072557610100808354040283529160200191610750565b820191906000526020600020905b81548152906001019060200180831161073357829003601f168201915b5050505050905090565b6000806107656108f6565b90506107728185856109a4565b600191505092915050565b6107a53361078961045d565b600a61079591906115c9565b836107a09190611614565b610a98565b3373ffffffffffffffffffffffffffffffffffffffff167f745f661b8143944fb883f50694ebed3a871e43c451d9d4bf4648a9d551d7e47a826040516107eb9190611168565b60405180910390a250565b6000600160008473ffffffffffffffffffffffffffffffffffffffff1673ffffffffffffffffffffffffffffffffffffffff16815260200190815260200160002060008373ffffffffffffffffffffffffffffffffffffffff1673ffffffffffffffffffffffffffffffffffffffff16815260200190815260200160002054905092915050565b6108a53361088961045d565b600a61089591906115c9565b836108a09190611614565b610b1a565b3373ffffffffffffffffffffffffffffffffffffffff167f57d61f3ccd4ccd25ec5d234d6049553a586fac134c85c98d0b0d9d5724f4e43e826040516108eb9190611168565b60405180910390a250565b600033905090565b61090b8383836001610b9c565b505050565b600061091c84846107f6565b90507fffffffffffffffffffffffffffffffffffffffffffffffffffffffffffffffff811461099e578181101561098e578281836040517ffb8f41b200000000000000000000000000000000000000000000000000000000815260040161098593929190611665565b60405180910390fd5b61099d84848484036000610b9c565b5b50505050565b600073ffffffffffffffffffffffffffffffffffffffff168373ffffffffffffffffffffffffffffffffffffffff1603610a165760006040517f96c6fd1e000000000000000000000000000000000000000000000000000000008152600401610a0d919061169c565b60405180910390fd5b600073ffffffffffffffffffffffffffffffffffffffff168273ffffffffffffffffffffffffffffffffffffffff1603610a885760006040517fec442f05000000000000000000000000000000000000000000000000000000008152600401610a7f919061169c565b60405180910390fd5b610a93838383610d73565b505050565b600073ffffffffffffffffffffffffffffffffffffffff168273ffffffffffffffffffffffffffffffffffffffff1603610b0a5760006040517fec442f05000000000000000000000000000000000000000000000000000000008152600401610b01919061169c565b60405180910390fd5b610b1660008383610d73565b5050565b600073ffffffffffffffffffffffffffffffffffffffff168273ffffffffffffffffffffffffffffffffffffffff1603610b8c5760006040517f96c6fd1e000000000000000000000000000000000000000000000000000000008152600401610b83919061169c565b60405180910390fd5b610b9882600083610d73565b5050565b600073ffffffffffffffffffffffffffffffffffffffff168473ffffffffffffffffffffffffffffffffffffffff1603610c0e5760006040517fe602df05000000000000000000000000000000000000000000000000000000008152600401610c05919061169c565b60405180910390fd5b600073ffffffffffffffffffffffffffffffffffffffff168373ffffffffffffffffffffffffffffffffffffffff1603610c805760006040517f94280d62000000000000000000000000000000000000000000000000000000008152600401610c77919061169c565b60405180910390fd5b81600160008673ffffffffffffffffffffffffffffffffffffffff1673ffffffffffffffffffffffffffffffffffffffff16815260200190815260200160002060008573ffffffffffffffffffffffffffffffffffffffff1673ffffffffffffffffffffffffffffffffffffffff168152602001908152602001600020819055508015610d6d578273ffffffffffffffffffffffffffffffffffffffff168473ffffffffffffffffffffffffffffffffffffffff167f8c5be1e5ebec7d5bd14f71427d1e84f3dd0314c0f7b2291e5b200ac8c7c3b92584604051610d649190611168565b60405180910390a35b50505050565b600073ffffffffffffffffffffffffffffffffffffffff168373ffffffffffffffffffffffffffffffffffffffff1603610dc5578060026000828254610db991906116b7565b92505081905550610e98565b60008060008573ffffffffffffffffffffffffffffffffffffffff1673ffffffffffffffffffffffffffffffffffffffff16815260200190815260200160002054905081811015610e51578381836040517fe450d38c000000000000000000000000000000000000000000000000000000008152600401610e4893929190611665565b60405180910390fd5b8181036000808673ffffffffffffffffffffffffffffffffffffffff1673ffffffffffffffffffffffffffffffffffffffff16815260200190815260200160002081905550505b600073ffffffffffffffffffffffffffffffffffffffff168273ffffffffffffffffffffffffffffffffffffffff1603610ee15780600260008282540392505081905550610f2e565b806000808473ffffffffffffffffffffffffffffffffffffffff1673ffffffffffffffffffffffffffffffffffffffff168152602001908152602001600020600082825401925050819055505b8173ffffffffffffffffffffffffffffffffffffffff168373ffffffffffffffffffffffffffffffffffffffff167fddf252ad1be2c89b69c2b068fc378daa952ba7f163c4a11628f55a4df523b3ef83604051610f8b9190611168565b60405180910390a3505050565b600081519050919050565b600082825260208201905092915050565b60005b83811015610fd2578082015181840152602081019050610fb7565b60008484015250505050565b6000601f19601f8301169050919050565b6000610ffa82610f98565b6110048185610fa3565b9350611014818560208601610fb4565b61101d81610fde565b840191505092915050565b600060208201905081810360008301526110428184610fef565b905092915050565b600080fd5b600073ffffffffffffffffffffffffffffffffffffffff82169050919050565b600061107a8261104f565b9050919050565b61108a8161106f565b811461109557600080fd5b50565b6000813590506110a781611081565b92915050565b6000819050919050565b6110c0816110ad565b81146110cb57600080fd5b50565b6000813590506110dd816110b7565b92915050565b600080604083850312156110fa576110f961104a565b5b600061110885828601611098565b9250506020611119858286016110ce565b9150509250929050565b60008115159050919050565b61113881611123565b82525050565b6000602082019050611153600083018461112f565b92915050565b611162816110ad565b82525050565b600060208201905061117d6000830184611159565b92915050565b60008060006060848603121561119c5761119b61104a565b5b60006111aa86828701611098565b93505060206111bb86828701611098565b92505060406111cc868287016110ce565b9150509250925092565b600060ff82169050919050565b6111ec816111d6565b82525050565b600060208201905061120760008301846111e3565b92915050565b6000602082840312156112235761122261104a565b5b6000611231848285016110ce565b91505092915050565b6000602082840312156112505761124f61104a565b5b600061125e84828501611098565b91505092915050565b60006112728261104f565b9050919050565b61128281611267565b82525050565b600060208201905061129d6000830184611279565b92915050565b600080604083850312156112ba576112b961104a565b5b60006112c885828601611098565b92505060206112d985828601611098565b9150509250929050565b7f4e487b7100000000000000000000000000000000000000000000000000000000600052602260045260246000fd5b6000600282049050600182168061132a57607f821691505b60208210810361133d5761133c6112e3565b5b50919050565b7f4f6e6c7920746865206f776e65722063616e2063616c6c20746869732066756e60008201527f6374696f6e000000000000000000000000000000000000000000000000000000602082015250565b600061139f602583610fa3565b91506113aa82611343565b604082019050919050565b600060208201905081810360008301526113ce81611392565b9050919050565b7f596f75206d7573742073656e642074686520657861637420616d6f756e74206f60008201527f6620457468657200000000000000000000000000000000000000000000000000602082015250565b6000611431602783610fa3565b915061143c826113d5565b604082019050919050565b6000602082019050818103600083015261146081611424565b9050919050565b7f4e487b7100000000000000000000000000000000000000000000000000000000600052601160045260246000fd5b60008160011c9050919050565b6000808291508390505b60018511156114ed578086048111156114c9576114c8611467565b5b60018516156114d85780820291505b80810290506114e685611496565b94506114ad565b94509492505050565b60008261150657600190506115c2565b8161151457600090506115c2565b816001811461152a576002811461153457611563565b60019150506115c2565b60ff84111561154657611545611467565b5b8360020a91508482111561155d5761155c611467565b5b506115c2565b5060208310610133831016604e8410600b84101617156115985782820a90508381111561159357611592611467565b5b6115c2565b6115a584848460016114a3565b925090508184048111156115bc576115bb611467565b5b81810290505b9392505050565b60006115d4826110ad565b91506115df836111d6565b925061160c7fffffffffffffffffffffffffffffffffffffffffffffffffffffffffffffffff84846114f6565b905092915050565b600061161f826110ad565b915061162a836110ad565b9250828202611638816110ad565b9150828204841483151761164f5761164e611467565b5b5092915050565b61165f8161106f565b82525050565b600060608201905061167a6000830186611656565b6116876020830185611159565b6116946040830184611159565b949350505050565b60006020820190506116b16000830184611656565b92915050565b60006116c2826110ad565b91506116cd836110ad565b92508282019050808211156116e5576116e4611467565b5b9291505056fea2646970667358221220475f6ace76e87da9cdba70aef111ab1037c937e56884bdb813cf8911ef4c340064736f6c63430008140033",
  "linkReferences": {},
  "deployedLinkReferences": {}
}